:020000040800F2
:1000000050FD0020E1010008CD31000889250008DD
:10001000313000089104000811430008000000007E
:10002000000000000000000000000000490100087E
:10003000FD060008000000008D010008D93F0008FF
:10004000FB010008FB010008FB010008FB010008A0
:10005000FB010008FB010008FF060008FB01000887
:1000600005070008FB0100080B070008FB0100085A
:10007000FB010008FB010008FB010008FB01000870
:10008000FB010008FB010008FB010008FB01000860
:10009000FB010008FB010008FB010008FB01000850
:1000A000FB010008FB010008FB010008FB01000840
:1000B000FB010008FB010008FB010008FB01000830
:1000C000FB010008FB010008FB010008FB01000820
:1000D000FB010008F9420008FB0100080543000885
:1000E000FB010008FB010008FB010008FB01000800
:1000F000FB010008FB010008FB010008FB010008F0
:10010000FB010008FB010008FB010008FB010008DF
:10011000FB010008FB010008FB010008FB010008CF
:10012000FB010008FB010008FB010008FB010008BF
:10013000DFF810D000F0C6F800480047416E000814
:10014000AFF3008050FD0020224B19680868B0E82A
:10015000F00F80F30988BFF36F8F4FF0000080F33A
:1001600011884EF00D0E7047000000000648006830
:10017000006880F3088862B661B6BFF34F8FBFF3A3
:100180006F8F00DF00BF00BF08ED00E0EFF30980D4
:10019000BFF36F8F0F4B1A6820E9F00F106008B59E
:1001A0004FF0600080F31188BFF34F8FBFF36F8F64
:1001B00008F022FF4FF0000080F31188BDE80840EE
:1001C00019680868B0E8F00F80F30988BFF36F8FF3
:1001D000704700BF24010020EFF305807047000046
:1001E0000648804706480047FEE7FEE7FEE7FEE7D1
:1001F000FEE7FEE7FEE7FEE7FEE7FEE771400008E8
:100200003101000810B5431A934209D283188818A7
:1002100003E010F8011D03F8011D521EF9D210BDB4
:1002200040EA01039B0703D009E008C9121F08C078
:10023000042AFAD203E011F8013B00F8013B521EF8
:10024000F9D210BDD2B201E000F8012B491EFBD259
:1002500070470022F6E710B513460A4604461946D1
:10026000FFF7F0FF204610BDCAB2401E10F8011F74
:100270008A4202D00029F9D10020704730B50446E7
:100280000020034600E05B1C934203D2E05CCD5C9F
:10029000401BF8D030BD30B50B460146002020226F
:1002A000012409E021FA02F59D4205D303FA02F583
:1002B000491B04FA02F52844151EA2F10102F1DCE3
:1002C00030BD0000064C074D06E0E06840F0010339
:1002D00094E8070098471034AC42F6D3FFF72CFFA0
:1002E00048B9000868B9000870B58C1810F8015BAF
:1002F00015F0070301D110F8013B2A1106D110F8BF
:10030000012B03E010F8016B01F8016B5B1EF9D1C2
:100310002B0705D40023521E0DD401F8013BFAE748
:1003200010F8013BCB1A921C03E013F8015B01F8B3
:10033000015B521EF9D5A142D8D3002070BD000048
:1003400008B5DFF8C490314F314E4FF027084FF019
:10035000FF3A00BFC9F80080272000F06CFD97F835
:1003600096001E22C0EB001007EB4001294801F067
:1003700014FE002352461946306908F025FF272055
:1003800000F048FD002005F099F8050005D0014671
:1003900021A004F0E1FA00240BE024A004F0DCFA30
:1003A000D8E7082C08D23038092812D82855641C00
:1003B000E4B2285D0028F4D107F0DAF95CB12146F7
:1003C000284607F07FF890B120A000BF04F0C4FADF
:1003D00016E007F0CDF94FF6FF7000904FF4784328
:1003E00021A20521072002F079FB24A0EEE7287A5C
:1003F000022805D000231A461946306809F006F88D
:1004000004F07EFFA6E70000140401409C010020D8
:10041000D4000020AC65002066726F6D2062742CE1
:10042000206765743A2025730A0000006572726FB8
:10043000722068617070656E656420696E206274F8
:100440005F726563765F646174610A00E8AFB7E666
:100450009FA5E79C8BE7A1ACE4BBB6E9858DE7BD22
:10046000AE5C720A000000004461746120666F7225
:100470006D6174206572726F720000006461746156
:1004800020666F726D6174206572726F720A00006F
:10049000FEE700004FF6FF7002F08CF907F0B0FAAB
:1004A0000426124C124D771F2660082000F0C3FC72
:1004B00000233A461946686808F086FE082000F0D6
:1004C000A9FC0121084603F0BDFF2660082000F0CA
:1004D000B2FC00230B221946686808F075FE08205C
:1004E00000F098FC03F050FFDEE700001404014028
:1004F000D40000202DE9F0410E46074615460421A0
:10050000052000F0EFF80021012003F003FF802117
:100510000A2003F04FFD002405E0395D092003F0B7
:10052000F9FE641CE4B2B442F7D30321012003F0C6
:10053000F1FEFF24052003F029FB641E14F0FF04E4
:1005400001D04007F6D5222003F020FB287021209F
:1005500003F01CFB6870BDE8F0810000F0B50D46AB
:100560002FA187B00646D1E9000114464FF47A77EF
:10057000CDE9050105E02CA004F0EEF9384600F0C5
:1005800085FA04A9522002F0BDFF2628F3D12AA043
:1005900004F0E2F904A802F08BFE262828D104A872
:1005A00003F01EF804AB05AA3146612002F0B6FE46
:1005B000262802D024A004F0CFF96946304602F084
:1005C0007BFF262801D026A010E06A469DB10020BE
:1005D0001318215C401CC0B299720628F8D311464A
:1005E000304603F02FF826280DD025A004F0B4F9EA
:1005F000BB2007B0F0BD0021605C5054491CC9B25B
:100600000629F9D3EBE745B125A000BF04F0A4F912
:100610002AA004F0A1F92620EBE72BA0F6E70000C2
:10062000FFFFFFFFFFFF0000E5AFBBE58DA1E5A4E5
:10063000B1E8B4A50D0A0000E5AFBBE58DA1E688E1
:1006400090E58A9F0A000000E6A380E9AA8CE5AF46
:1006500086E7A08142E5A4B1E8B4A50D0A00000038
:10066000E8AFBBE58F96E68EA7E588B6E59D97E6F1
:1006700095B0E68DAEE5A4B1E8B4A5200A0000006F
:10068000E58699E585A5E695B0E68DAEE588B0E608
:100690008EA7E588B6E59D97E5A4B1E8B4A50A0064
:1006A000E5AF86E7A08142E4BFAEE694B9E6889064
:1006B000E58A9FEFBC815C720A00000066696E6982
:1006C000736865640A000000E5AF86E7A08141E435
:1006D000BFAEE694B9E68890E58A9FEFBC815C7274
:1006E0000A00000070B50C46054603F04FFA20EAF8
:1006F00004012846BDE8704003F00CBE704701209D
:1007000000F018BA042000F015BA102000F012BA58
:1007100072B6FEE730B5B3F5804F05D06FF070418B
:1007200040F82210002030BD8C690B688D6823438F
:100730004C688989240144EA0524234343EA0141A2
:1007400050F82230014C23401943E9E70000F0CF74
:1007500010B50A6850F8223023F0010340F8223027
:100760008C68082C23D000234A682243CC681C43A1
:100770000B6922431A434B690E4C1A43CB691A4347
:100780000B6A1A434B6A1A438B6A1A43CB6A1A43A1
:100790000B6B1A438B6913434A6B09681A4350F871
:1007A0002130A343134340F82130002010BD4023E3
:1007B000DAE700007FFF0F0030B5D1E9003443EAEB
:1007C00004138C688D89240244EA054423430C8A6F
:1007D000074D00EB820005EB045423430C7D6D01B3
:1007E00005EB0464896923430B434360002030BD5B
:1007F0000000F0FF08B5012009F0C8FB394D3A4C64
:100800004FF0FF3710262E600A2000F014FB002363
:100810003A461946A06808F0D7FC0A2000F0FAFA18
:1008200009F081FD09F062FD5528FBD106F0A0FF1B
:100830004FF6FF7000904FF478432CA2052107205B
:1008400002F04CF92EA004F087F800F085FA01229E
:1008500003461146104609F065FA00231A46194668
:10086000184609F05FFA0328F7D12E600A2000F03D
:10087000E2FA00234FF4FA621946A06808F0A4FCDB
:100880000A2000F0C7FA00231A460321012009F0CC
:1008900049FA40B1012009F06BFB00BF09F033FDBC
:1008A0000028FBD1AFE70221002009F073FA78B1EC
:1008B000042009F05DFB4FF47A7000F0E7F800BF08
:1008C00009F021FD0028FBD1012009F051FB9AE736
:1008D000022009F04DFB00231A461946206808F053
:1008E00095FDEDE714040140D400002052656D6FC2
:1008F000766520796F75722066696E676572000093
:1009000052656D6F766520796F75722066696E67C6
:1009100065720A0010B590F821100022022905D056
:100920000421816380F82020012010BD01680B683C
:1009300023F00E030B6001680B6823F001030B60CA
:1009400090F84030C46B012101FA03F3636080F832
:10095000211080F82020104610BD00002DE9F05F26
:1009600090F821100024022903D00421816301247E
:1009700085E001680A6822F00E020A6001680A68D0
:1009800022F001020A603F4E3E4FB215DFF8F4C07C
:10099000DFF8F090DFF8ECA0DFF8E8B0DFF8E4E093
:1009A0000168783F13011502ACF1640CA9F15009FC
:1009B000AAF13C0AABF1280BAEF1140E4FF48018EB
:1009C000B14227D9B9420ED0614512D049451DD058
:1009D000514518D0594518D0714501D1424615E00E
:1009E000294EB14201D1012210E0274E1436B14206
:1009F00001D110220AE0244E2836B14206D0224A04
:100A00003C32914201D11A4600E02A461E49091F94
:100A10000A602BE0B94213D0614517D0494522D076
:100A200051451DD059451DD0714501D142461AE0AE
:100A3000B14202D14FF0807215E0134EB14201D1A4
:100A4000012210E0104E1436B14201D110220AE00A
:100A50000D4E2836B14206D00B4A3C32914201D1AC
:100A60001A4600E02A46074980394A60012180F889
:100A70002110002180F82010416B01B188472046E9
:100A8000BDE8F09F800002400804024070B50446B3
:100A900000F062F90546601C02D004480078044466
:100AA00000F05AF9401BA042FAD370BD1401002097
:100AB00030B585B00020009001900290039012485C
:100AC000016800291ED1012101601048416941F4EB
:100AD000807141614069022400F4807004904FF6F7
:100AE0008070CDE90004032569460395084800F0AD
:100AF0002DF84CF6B370CDE900046946039505481E
:100B000000F024F805B030BD0801002000100240BC
:100B10000018014000140140042805D0102805D019
:100B2000012805D102F0D0BD03F0E6BE03F0FCBE03
:100B300070470000044910B50A68024202D00860FC
:100B4000FFF7EAFF10BD0000140401402DE9F84F43
:100B5000DFF8C8910024A9F1040B23460F2709F1FF
:100B6000040AABF1040ED1E00125A54006EA050216
:100B7000AA4276D1DFF8A8C14E68A6EB0C086645FC
:100B80002BD00DDC032E34D005DC36B3012E19D06A
:100B9000022E2FD11BE0112E16D0122E2AD119E0D1
:100BA000B8F5881F19D006DCB8F5803F15D0B8F528
:100BB000801F1FD111E0B8F5001F0ED0B8F5041F3B
:100BC00018D10AE0CB6815E0CB681B1D12E0CB689A
:100BD00008330FE0CB680C330CE08B682BB1012B92
:100BE0004FF0080303D0456104E0042302E00561EF
:100BF00000E00023FF2A01D8064601E000F10406C8
:100C00004FEA840501D9A5F12005D6F8008007FA3E
:100C100005FC28EA0C0803FA05F548EA0508C6F8B9
:100C200000804D68ED0070D53E4DAE6946F001067E
:100C3000AE61AD6924F0030605F0010500953A4D5B
:100C400006EB050CDCF80850A607360F07FA06F885
:100C500025EA0805DFF8D480404503D14FF00008AD
:100C600025E052E0DFF8C880404502D14FF001088E
:100C70001DE0DFF8C080404502D14FF0020816E0C9
:100C8000DFF8B480404502D14FF003080FE0DFF8F1
:100C9000AC80404502D14FF0040808E0DFF8A080A6
:100CA000404502D14FF0050801E04FF0060808FA70
:100CB00006F848EA0508CCF808804D68D9F80060C5
:100CC000ED024D4601D5164300E096432E604D6877
:100CD000DAF80060AD02554601D5164300E09643B0
:100CE0002E604D68DBF80060AD035D4601D516430C
:100CF00000E096432E604D68DEF80060ED03754617
:100D000001D5164300E096432E60641C0A6816461F
:100D1000E2407FF429AFBDE8F88F000008040140ED
:100D200000001110001002400000014000080140C6
:100D3000000C014000100140001401400018014067
:100D4000001C01408068084000D0012070470AB1B3
:100D5000016170470904FBE70148806870470000A3
:100D600014010020024881680278114481607047B4
:100D700014010020074810B5016841F0100101601E
:100D8000032000F085F80F2000F006F800F024F8AA
:100D9000002010BD0020024070B50D4D04464FF4F8
:100DA0007A712878B1FBF0F00A490968B1FBF0F0DC
:100DB00001F0DFF848B9102C07D200222146501E5E
:100DC00000F046F800206C6070BD012070BD00008E
:100DD00014010020200100200C4808B5816941F071
:100DE00001018161816901F001010091C16941F056
:100DF0008051C161C06900F0805000900448416892
:100E000021F0E06141F00071416008BD0010024036
:100E10000000014000280DDB00F01F02012191407D
:100E20004009800000F1E020C0F88011BFF34F8F2F
:100E3000BFF36F8F7047002809DB00F01F0201210C
:100E400091404009800000F1E020C0F80011704797
:100E5000F0B40E4B1B680C46C3F30223C3F1070525
:100E6000042D00D90425191D072901D2002300E013
:100E7000DB1E012606FA05F1491E214099409E40DD
:100E8000761E16403143F0BC03F076BD0CED00E059
:100E9000064900F0070208684FF6FF03184040EAD1
:100EA0000220034A10430860704700000CED00E088
:100EB0000000FA05014901200862704700000E4257
:100EC00010B501460020284C04292FD00BDC012945
:100ED00030D0022929D100F06BF96168C1F381316A
:100EE000491C49001FE0082920D010291DD1616844
:100EF0002268D20119D51D48C1F38342C903805C21
:100F00000AD56168194AC1F34041921E515C184AE2
:100F1000B2FBF1F1484301E01649484361684902D8
:100F200003D440000321B0FBF1F010BDBDE8104038
:100F300000F04EB9226AC2F30121012903D19207C0
:100F400001D5C80310BD022905D1626A920702D5F6
:100F500049F6404010BD0329FCD121688903F9D529
:100F60004FF2244010BD000000100240D9B8000824
:100F700000127A0000093D002DE9F843054600788B
:100F8000354CC00754D0E0690026C00008D4E069A1
:100F900040F08050E061E069012600F08050009050
:100FA0002E480168C90512D40168804641F4807159
:100FB0000160FFF7D1FE074605E000BFFFF7CCFE5A
:100FC000C01B642823D8D8F80000C005F6D5206AD5
:100FD00010F4407021D0A98801F4407181421CD0E6
:100FE000206A1F49012220F440700A6000220A6032
:100FF0002062C00711D0FFF7AFFE074641F28838E4
:1010000008E000BFFFF7A8FEC11B414502D903203D
:10101000BDE8F883206A8007F4D5206A696820F467
:101020004070084320621EB1E06920F08050E0610A
:101030002878800705D56068A96820F440400843F7
:1010400060602878C00605D56068696920F4800072
:10105000084360600020DBE70010024000700040A1
:10106000400442422DE9F0470F46050061D0434E4F
:10107000306800F00700B84209D2306820F007005D
:1010800038433060306800F00700B84251D128681A
:101090003B4C810712D5400703D5606840F4E060FF
:1010A00060602878000703D5606840F46050606095
:1010B0006068A96820F0F000084360602878C007E5
:1010C00028D06868012810D02168022810D089072C
:1010D00000292EDA616821F0030101436160FFF706
:1010E0003BFE804641F288390DE021688903EFE735
:1010F0008901EDE7FFF730FEA0EB0801494502D971
:101100000320BDE8F0876068696800F00C00B0EB70
:10111000810FEFD1306800F00700B8420BD930687A
:1011200020F0070038433060306800F00700B84214
:1011300001D00120E5E72878400705D56068E96817
:1011400020F4E060084360602878000706D56068F6
:10115000296920F4605040EAC100606000F038F86E
:101160006168084AC1F30311515CC8400649086030
:1011700006480068FFF710FE0020C2E7002002408A
:1011800000100240E9B800082001002018010020EA
:101190000448054900684968044AC1F30221515CCA
:1011A000C84070472001002000100240F9B8000834
:1011B0000448054900684968044AC1F3C221515CEA
:1011C000C84070472001002000100240F9B8000814
:1011D0000E4A51680E4801F00C03042B11D0082B65
:1011E0000FD10C48C1F38343C903C05C0AD55168D1
:1011F000084AC1F34041921E515C054A5043B0FB7E
:10120000F1F0704704494843704700000010024065
:1012100000127A00C7B8000800093D002DE9F84F18
:10122000040070D02078C04DC00749D06868C0F372
:101230008100012807D06868C0F38100022809D125
:101240006868C00306D52868800339D5606800281F
:10125000E7D035E06068B0F5803F0BD010B1B0F555
:10126000A02F11D0286820F480302860286820F44E
:10127000802002E0286840F480302860606890B1E7
:10128000FFF76AFD06460AE0286840F480202860DF
:10129000F0E700BFFFF760FD801B642873D8286863
:1012A0008003F7D50CE0FFF757FD064605E000BFC9
:1012B000FFF752FD801B6428F0D828688003F7D41C
:1012C00020789A4E80074FF001094FF0000839D579
:1012D000686810F00C0F07D06868C0F3810002281E
:1012E00009D16868C00306D42868800714D520692E
:1012F000012808D110E02069B0B1C6F80090FFF7CE
:101300002BFD074605E00AE1FFF726FDC01B02287A
:10131000C4D828688007F7D52868616920F0F800EC
:1013200040EAC10028600DE0C6F80080FFF714FD18
:10133000074604E0FFF710FDC01B022823D82868E9
:101340008007F7D4207800072CD57948A169D9B156
:10135000C0F80090FFF700FD074604E0FFF7FCFC33
:10136000C01B02280FD8686A8007F7D571484FF470
:10137000FA510068B0FBF1F0009000BF0098411EE8
:101380000091FAD20EE080E0C0F80080FFF7E4FCA4
:10139000074604E0FFF7E0FCC01B022875D8686A26
:1013A0008007F7D42078400760D5E8690027C0009F
:1013B00008D4E86940F08050E861E869012700F04E
:1013C000805000905C480168C90513D401688346C9
:1013D00041F480710160FFF7BFFC824606E000BF68
:1013E000FFF7BAFCA0EB0A0064284ED8DBF8000037
:1013F000C005F5D5E06801280AD008B1052813D04A
:10140000286A20F001002862286A20F0040002E027
:10141000286A40F001002862E06841F2883B98B1F8
:10142000FFF79AFC82460BE0286A40F0040028622D
:10143000EEE700BFFFF790FCA0EB0A0159455AD830
:10144000286A8007F6D50CE0FFF786FC824605E0A7
:10145000FFF782FCA0EB0A0159454CD8286A8007A7
:10146000F6D41FB1E86920F08050E861E06988B3E4
:101470006968C1F38101022944D00228C6F860805E
:1014800004D0FFF769FC044638E034E0FFF764FC61
:10149000074604E0FFF760FCC01B02282BD8286831
:1014A0008001F7D4206AB0F5803F05D16868A16853
:1014B00020F4003008436860D4E9080108436968F3
:1014C00021F4741108436860C6F86090FFF744FC8B
:1014D000044606E025E000BFFFF73EFC001B0228A3
:1014E00009D828688001F7D51BE000BFFFF734FC5E
:1014F000001B022802D90320BDE8F88F286880016C
:10150000F4D40EE00128F7D06868226A00F4803134
:10151000914204D1616A00F47010884201D0012028
:10152000EAE70020E8E70000001002400000424225
:10153000800442422001002000700040024850F820
:10154000210080B270470000006C0040024800EBB0
:10155000810091B201607047006C0040F8B5050051
:101560004FF0000016460C46009006D02CB1002229
:101570006946284600F019F808B10120F8BD287B1B
:101580002070E87BE070697B6170A97BA17056B127
:1015900002F0F9F9E070607802F0F5F96070A07877
:1015A00002F0F1F9A0700020F8BD2DE9F047914656
:1015B0000C465FEA00084AD084B3D8F800004068BF
:1015C000400744D4404602F07DFA4FF4616205467C
:1015D000B0FBF2F1B0FBF2F302FB13503C23B0FB83
:1015E000F3F0B5FBF2F6607002FB1650B0FBF3F2BD
:1015F00003FB1200A070182931D31820B1FBF0F7BB
:10160000B1FBF0F200FB12102070404602F053FADA
:10161000411C04D0A84202D9461B02E017E04FF05B
:10162000FF36A7EB071000EB4000C0EB001005EB06
:10163000C0152946404602F094FA40B9701C01D00A
:10164000711900E03146404602F077FA10B10120EE
:10165000BDE8F0873946404602F0A0F900E021706D
:10166000B9F1000F0BD0207802F08DF9207060786E
:1016700002F089F96070A07802F085F9A07000206E
:10168000E6E7000070B5040003D0607C002610B1CE
:1016900005E0012070BD2674204600F03DF80220D0
:1016A0006074204600F00AF9042550BB204602F081
:1016B000CCF930BB2068416821F007014160A06887
:1016C00020B11448016821F0010101601148001F98
:1016D0000168A26821F46071114301606068411CD7
:1016E00004D10120FFF7ECFB58B1401E2268C0F383
:1016F00003419160216880B2C860204602F0C0F9C1
:1017000008B16574C5E7E67301206073A073607467
:10171000002070BD306C004008B500680849884260
:101720000DD1FFF7C7FB0748C16941F00061C161F6
:10173000C069054900F0006000900120086008BD04
:1017400000280040001002403C0442422DE9F041D4
:101750000D4604003BD0C5B3207C01283AD04FF0A1
:10176000010884F8108002206074E87872B302F0F7
:1017700001F9E073687802F0FDF86073A87802F070
:10178000F9F8A073C2B2617BE07B02F0ABF9207381
:101790002870204602F096F94FF46161B0FBF1F138
:1017A000002518292DD91822B1FBF2F1A1EB011166
:1017B00001EB4101C1EB011100EBC116314620469E
:1017C00002F0CFF90427C8B90BE000E004E00120E3
:1017D000BDE8F0810220FBE7E07368786073A878C9
:1017E000CFE7204602F067F9411C0AD0B04208D288
:1017F00006490144204602F0A0F910B1677425742F
:10180000E5E784F8118025740020E1E780510100AC
:101810002DE9F0410D46040024D01DB3207C0128A1
:1018200023D04FF0010884F81080022060742878DB
:10183000EAB102F09FF84FF4616100FB01F66878AD
:1018400002F098F8C0EB001006EB8006A87802F0D2
:1018500091F835182946204602F083F9002604271E
:1018600010BB0FE00120BDE8F0810220FBE74FF440
:10187000616148436978C1EB011100EB8100A978EF
:101880004518E7E72068416821F0050141602046DE
:1018900002F011F9411C0AD0A84208D206490144BD
:1018A000204602F04AF910B167742674DAE784F82A
:1018B000118026740020D6E78051010070B5040025
:1018C0000AD02068416821F008014160FFF744FA1E
:1018D00005464FF47A7608E0012070BDFFF73CFA28
:1018E000401BB04201D9032070BD2068406800074A
:1018F000F4D5002070BD70B5040009D0606A0025E1
:1019000040B125616561A56294F8510040B10CE0D9
:10191000012070BD6068B0F5827FF4D0E561F2E728
:1019200084F85050204600F03FF8022084F851001F
:101930002068016821F040010160A088218900F43D
:10194000827001F404410843A18901F40061084355
:10195000217C01F002010843217D01F001010843CF
:10196000218B01F400710843217F01F03801084305
:1019700094F8201001F080010843218D01F40051FA
:10198000084321680860A069042101EA1040216829
:1019900048602068C16921F40061C161656501206A
:1019A00084F85100002070BD30B585B0002400944B
:1019B000019402940394254D0368254802210322D3
:1019C000AB421AD1836943F480538361836903F482
:1019D00080530493836943F00403836180691D4D40
:1019E00000F004000490A020CDE9000103926946B4
:1019F0002846FFF7ABF840201EE0174DAB4222D13E
:101A0000C36943F48043C361C36903F4804304930F
:101A1000836943F0080383618069104D00F008007A
:101A200004904FF42040CDE9000103926946284616
:101A3000FFF78CF84FF48040CDE900046946284652
:101A40000294FFF783F805B030BD0000003001407C
:101A5000001002400008014000380040000C014026
:101A60002DE9F84F044690F851001D4616460F46E2
:101A7000012838D160684FF00408B0F5827F01D1A9
:101A8000A06830B3FFF768F98246002F75D0002EAA
:101A900073D094F85000012825D04FF0010984F844
:101AA000509084F851804FF00008C4F85480A76328
:101AB000A687E687C4F83080A4F83480A4F836807E
:101AC000C4F84080C4F84480A068B0F5004F0CD042
:101AD00015E084F85180009313460A46204600F032
:101AE0001CF9BDE8F88F0220FBE72068016821F0AF
:101AF000400101602068016821F480410160206894
:101B00000168490603D4016841F040010160E068C2
:101B1000C0B134E020688168C90709D0007BA16B9F
:101B20000870A06B401CA063E08F401EE08709E0B6
:101B3000FFF712F9A0EB0A00A84202D3681C01D0FB
:101B400032E085B3E08F0028E4D11BE02068816893
:101B5000C90709D0C068A16B0880A06B801CA06376
:101B6000E08F401EE0870AE0FFF7F6F8A0EB0A00DE
:101B7000A84203D3681C02D016E012E09DB1E08FAA
:101B80000028E3D152462946204602F027F808B142
:101B90002020606584F8519084F85080606D0028A2
:101BA0009FD001209DE7FFE784F8519084F8508092
:101BB000032096E72DE9F84F984616468A460446D4
:101BC000FFF7CAF8814694F8510001281ED1BAF1F6
:101BD000000F73D0002E71D094F85000012815D05A
:101BE000012784F85070032084F8510000256565B2
:101BF000C4F830A0A686E686A563A587E587656458
:101C00002564A068B0F5004F03D00CE00220BDE8C9
:101C1000F88F2068016821F04001016020680168A8
:101C200041F48041016020680168490603D40168DD
:101C300041F040010160E068B0F5006F606803D0DA
:101C400048B3012E27D047E008B1012E1FD1206BE9
:101C500021680088C86006E020688168890709D586
:101C6000216B0988C160206B801C2063E08E401EC0
:101C7000E0860CE0FFF770F8A0EB0901414503D3C3
:101C8000B8F1FF3F03D035E0B8F1000F32D0E08E5D
:101C90000028E1D123E0206B21680078087306E07A
:101CA0002068816889070AD5216B09780173206B48
:101CB000401C2063E08E401EE0860DE02BE0FFF725
:101CC0004BF8A0EB0901414503D3B8F1FF3F03D026
:101CD00010E0B8F1000F0DD0E08E0028E0D14A46A8
:101CE0004146204601F0A8FF08B120206065A068A9
:101CF00030B109E084F8517084F85050032086E731
:101D00002068C1688068009084F8517004F8505FC2
:101D100060680028F3D0012079E72DE9FF4F81B0FA
:101D20001D46934604464FF001090E9EFFF714F836
:101D3000074694F851006168012806D0B1F5827F0A
:101D40003CD1A168C9BB042838D10298002871D0C1
:101D5000BBF1000FFBD0002DF9D094F85000012802
:101D60002CD04FF0010A84F850A094F851000428B8
:101D700002D0052084F851004FF00008C4F85480C8
:101D8000C4F838B0E587A58702992163E586A58662
:101D9000C4F84080C4F8448020680168490603D430
:101DA000016841F040010160E068B0F5006F6068D3
:101DB00008D0F0B3012D49D081E0FFE7022005B043
:101DC000BDE8F08F08B1012D39D1206B2168008862
:101DD000C860206B801C2063E08E401EE0862EE0F1
:101DE0002068816889070FD5E18E69B1B9F1010FCB
:101DF0000AD1216B0988C160206B801C2063E08EB2
:101E0000401EE0864FF0000920688168C9070CD0A9
:101E1000E18F51B1C068A16B0880A06B801CA063EA
:101E2000E08F401EE0874FF00109FEF795FFC01BD1
:101E300001E00BE067E0B04201D3701C50D1E08EAE
:101E40000028CDD1E08F0028CAD13EE0206B216868
:101E500000780873206B401C2063E08E401EE086F3
:101E60002DE02068816889070FD5E18E69B1B9F14D
:101E7000010F0AD1216B09780173206B401C20638C
:101E8000E08E401EE0864FF0000920688168C90797
:101E90000CD0E18F51B1C068A16B0870A06B401CE1
:101EA000A063E08F401EE0874FF00109FEF754FF6A
:101EB000C01BB04202D3701C01D011E086B1E08E8D
:101EC0000028CED1E08F0028CBD13A4631462046BB
:101ED00001F0B2FE50B12020606584F8508012E01D
:101EE00084F851A084F85080032068E7A06818B9EE
:101EF0002068C1688068009084F851A084F8508000
:101F0000606D0028F1D0012059E770B515460E46E6
:101F1000040007D0A069B0F5807F03D094F8410099
:101F200010B107E0012070BD002084F84000204679
:101F300000F01DF804F108012068FEF709FC3146A5
:101F4000A2682068FEF738FCD4E901022946236B19
:101F5000FEF7E0FBA168206850F8212042F0010262
:101F600040F82120012084F84100002070BDFEF7D8
:101F70009FBD10B5401EB0F1807F01D3012010BD80
:101F80004FF0E02460610F21601702F0F5FC0020A3
:101F9000A06107202061002010BD18B5034690F80D
:101FA0004200202801D0022018BD61B15AB10120A1
:101FB000186300205863184602F048F90028F3D14E
:101FC000196B012901D0012018BD19680A684968F8
:101FD000009119680C3151E8002F42F0100241E8DD
:101FE0000024002CF5D118BD0249884201D103F02C
:101FF000FBB97047AC65002070470000F8B5016878
:1020000004460868CA684B6910F00F0F4FF00005CE
:1020100059D003F0010602F49077374365D0C10729
:1020200005D0D10503D5616C41F001016164410720
:1020300005D5D90703D0616C41F0020161648107C5
:1020400005D5D90703D0616C41F004016164010733
:1020500007D502F02001314303D0616C41F0080143
:102060006164616C00293AD0800604D5900602D5DF
:10207000204602F02DF820684069616CC0F38010A2
:10208000090700D460B3204601F0FBFF20684069D7
:10209000400621D52068143050E8001F21F040018F
:1020A00040E80012002AF5D1E06BA8B16D49416308
:1020B000E06BFEF753FC002811D0E06B416B01B0E0
:1020C000BDE8F040084783060FD593060DD520469E
:1020D000BDE8F84001F0FCBF2046FFF78DFFF8BDDA
:1020E0002046FFF789FF6564F8BD266B2023012E8B
:1020F0007CD1C6067AD5D60678D50868486800909F
:1021000048694FF00206400640D5E16B0868406818
:102110000004000CE8D0A28D8242E5D9E0858869F0
:1021200020282DD020680C3050E8001F21F4807149
:1021300040E80012002AF5D12068143050E8001F52
:1021400021F0010140E80012002AF5D12068143086
:1021500050E8001F21F0400140E80012002AF5D1AC
:1021600084F84230256320680C3050E8001F21F0CD
:10217000100140E80012002AF5D1E06BFEF7CAFB1F
:102180006663A08DE18D401A81B22AE0A08DE18DB9
:10219000401A81B2E08D0028A6D00029A4D0226880
:1021A0000C3252E8000F20F4907042E80007002F34
:1021B000F5D12068143050E8002F22F0010240E8E9
:1021C0000027002FF5D184F84230256320680C30B9
:1021D00050E8002F22F0100240E80023002BF5D138
:1021E00066632046FFF700FFF8BDFFE705062BD525
:1021F000150629D594F841002128F5D1A068B0F53D
:10220000805F01D12069B0B1206A411C2162216840
:1022100000784860E08C401E0004000CE084E3D1AC
:102220002068C16821F08001C1602068C16841F068
:102230004001C160D8E7206A0088C0F30800486008
:10224000206A801C2062E5E74006CDD55006CBD53C
:10225000CA68204622F04002CA6084F8413000F08B
:1022600091F9C1E77340000870B5040004D094F8F8
:102270004100002510B106E0012070BD84F84050F7
:10228000204600F023F8242084F841002068C1682B
:1022900021F40051C160204601F07CFF20680169F3
:1022A00021F4904101612068416921F02A014161D6
:1022B0002068C16841F40051C1606564202084F841
:1022C000410084F842006563002070BDF0B585B020
:1022D0000024009401940294039403683F4F022069
:1022E0003F4903223F4D4602BB4225D18B6943F44F
:1022F00080438B618B6903F4804304938B6943F0C3
:1023000004038B618969039201F0040104910102C5
:10231000CDE9001069462846FEF718FCCDE90064B7
:10232000694628460294FEF711FC0022062125206A
:10233000FEF78EFD25204DE02B4FBB4221D1CB690E
:1023400043F40033CB61CB6903F4003304938B690E
:1023500043F004038B618969039201F00401049145
:102360000421CDE9001069462846FEF7EFFB08205E
:10237000CDE90004694628460294FEF7E7FB05B064
:10238000F0BD1A4DAB42FAD1CB6943F48023CB6147
:10239000CB6903F4802304938B6943F008038B61BA
:1023A0008969134D01F00801CDE90321CDE90060F1
:1023B00069462846FEF7CAFBE814CDE900046946E1
:1023C00028460294FEF7C2FB002211462720FEF7A2
:1023D0003FFD2720FEF72FFDD1E700000038014028
:1023E0000010024000080140004400400048004046
:1023F000000C01402DE9F84F044690F842009A463F
:1024000016460D46202802D00220BDE8F88FB5B14F
:10241000AEB100206064222184F842102063FEF7F0
:102420009BFCA6858146E685A0684FF4805820274E
:10243000404501D1206920B12E46002529E0012028
:10244000E3E7002625E04B46002220212046CDF878
:1024500000A001F016FF18B184F842700320D4E701
:1024600026B1A06840451AD038B108E0206840681D
:10247000C0F3080025F8020B08E0206978B1206855
:10248000406800F07F0000BF06F8010BE08D401EA1
:10249000E085E08D0028D6D184F84270B5E7206849
:1024A0004068F1E790F84230202B01D002207047BD
:1024B00021B11AB10023036301F0C8BE01207047A7
:1024C000054A0168914206D1044A012111700A228D
:1024D0000349FFF7E7BF70470038014010010020B3
:1024E000106500202DE9F843044690F84100984615
:1024F00016460D46202802D00220BDE8F88385B19B
:102500007EB100206064212084F84100FEF724FCA5
:10251000A6848146E684A0682027B0F5805F02D0BB
:1025200003E00120E9E7206910B12E4600250EE006
:1025300000260CE08021204601F0A3FEA8B9C6B118
:1025400016F8010B21684860E08C401EE084E08CA6
:102550004B464FF00002CDF800800028EAD14FF042
:102560004001204601F08DFE40B184F84170032007
:10257000C3E735F8020BC0F30800E3E784F84170C5
:102580000020BAE770470000084C002202212046D4
:10259000FEF7DDFB002201212046FEF7D8FB0022DA
:1025A00020212046FEF7D3FBFEE70000000C01408F
:1025B000044B4FF4805108B1012200E0002218467C
:1025C000FEF7C5BB00140140F8B51446054620448B
:1025D00082B21F46281B00930E4680B20B4600F0C5
:1025E0003FF8301983B2301B81B22A46104600975B
:1025F00000F036F8F8BD00002DE9F0411546164A06
:102600001C46069E1388984223D25288914220D2BB
:1026100047197F1E9F4201DB1B1A9DB20B195B1EDF
:10262000934201DB521A94B20A19521E93B2421914
:10263000521E92B200F0ACF9084908E0284602E0C8
:102640000E80401E80B20028FAD1641EA4B2002C75
:10265000F4D1BDE8F0810000140000200000026009
:102660002DE9F05F0C460646181B1546002800DCD5
:10267000E01AA91B002900DC711B884207DD3046E7
:1026800026461D464FF001080446134601E04FF070
:102690000008AE4205D930462E46054620461C4667
:1026A0000346A81B0FFA80F9181B002800DCE01A6B
:1026B0000FFA80FB09EBD97047109C4201D2012030
:1026C00001E04FF0FF30824618E000BF0A9AB8F1EF
:1026D000000F02D03146204601E02146304600F08E
:1026E00011F8A7EB0B0007B2002F05DA04EB0A0084
:1026F00084B207EB090007B2761CB6B2AE42E5D948
:10270000BDE8F09F10B51446074A138898420AD2D4
:102710005288914207D24A1C93B2421C92B200F0F6
:1027200037F90248048010BD140000200000026048
:102730002DE9F84304461E480D46DDF82080018847
:102740001E468C4232D2408885422FD2A3185B1E8F
:102750008B4201DB091B8AB2A919491E814201DBA8
:10276000401B86B2A7187F1E2B46BAB219462046D8
:10277000CDF80080FFF774FF2E44761EB3B2BAB2D4
:10278000B1B22046CDF80080FFF76AFF2246B3B20F
:1027900029461046CDF80080FFF762FFB3B2BAB207
:1027A000B8B22946CDF80080FFF75AFFBDE8F8839C
:1027B0001400002070B50E4C054600216088401EB4
:1027C00083B22088401E82B2084600F0E1F8628899
:1027D0002088084B08E0014602E01D80491E89B2AE
:1027E0000029FAD1521E92B2002AF4D170BD000025
:1027F000140000200000026070B5634C88B0002215
:1028000002212046FEF7A3FA0520FEF73FF9012238
:1028100002212046FEF79BFA0120A40420804FF4F9
:10282000FA70FEF733F9CB202080584D05F14400B3
:1028300007C88DE807000521684600F045F9CF205C
:102840002080D5E90901CDE900010321684600F0A7
:102850003BF9E8202080D5E90B01CDE900010321F7
:10286000684600F031F9EA202080002602216846FF
:10287000009600F029F9ED202080D5E90F01CDE97F
:1028800000010421684600F01FF9F7202080286825
:1028900000900121684600F017F9C0202080686888
:1028A00000900121684600F00FF9C1202080A8683F
:1028B00000900121684600F007F9C5202080E869F2
:1028C00000900221684600F0FFF8C7202080E868E9
:1028D00000900121684600F0F7F836202080286932
:1028E00000900121684600F0EFF83A2020806869E6
:1028F00000900121684600F0E7F8B1202080286AA6
:1029000000900121684600F0DFF8B6202080D5E96C
:102910000D01CDE900010321684600F0D5F8F22051
:10292000208001216846009600F0CEF82620208005
:10293000A86900900121684600F0C6F8E0202080D8
:10294000202205F150016846FDF75CFC0F21684626
:1029500000F0BAF8E1202080202205F170016846DD
:10296000FDF750FC0F21684600F0AEF811202080E2
:102970007820FEF78BF82920208008B00220BDE8DF
:10298000704000F023B800000018014000B80008B3
:1029900070B54FF0C0452A242C800B4C060A2680C7
:1029A000C0B22080100A2080D0B220802B20288046
:1029B000080A2080C8B22080180A2080D8B220805F
:1029C0002C20288070BD0000000002607CB51C4CEB
:1029D000C3074FF0F001A0804FF4A0722DD02280E9
:1029E000618036210D072980082141EA40101549F0
:1029F00008802A2028800026009601962088401E04
:102A0000010AADF80410C0B2ADF806000421684612
:102A100000F05AF82B202880009601966088401E0E
:102A2000010AADF80410C0B2ADF8060004216846F2
:102A300000F04AF82C2028807CBD21806280D0E7FD
:102A400014000020000002602DE9FF4F80461D4861
:102A50008B4681B0016808884968C0F30726009159
:102A6000C7B2ABF10101A8F10100314438448BB287
:102A700082B259464046FFF78BFF00251CE00398C1
:102A80000099203800FB0650002431F810A00BEB11
:102A900005090EE00AFA04F0000408EB04001FFA2E
:102AA00089F180B201D5049A00E00E9AFFF72AFE60
:102AB000641CA742EED86D1CAE42E0D805B0BDE85C
:102AC000F08F000010000020034A02E030F8023BC3
:102AD0001380491EFAD27047000002602DE9F84FBA
:102AE000044619489B46164600688946DDF828A02A
:102AF0000568DFF85880EFB20FE0B8F80000391928
:102B000081420DDA1FFA89F1A0B25B46CDF800A030
:102B1000FFF79AFFE8B20444761C3278002AECD121
:102B200046463819318888420BDA1FFA89F1A0B27B
:102B30005B462022CDF800A0FFF786FFE8B20444F0
:102B4000EFE7BDE8F88F000010000020140000201F
:102B50002DE9F84F054616489A46144600680F4678
:102B6000DDF82890DFF84C8006681CE0F0B2B8F879
:102B70000030411999420BD3C6F30721CB199FB2FC
:102B8000B8F802000025394481420FD2202A09D02A
:102B9000534639462846CDF80090FFF755FFF0B26E
:102BA000284485B2641C2278002ADFD1BDE8F88F62
:102BB000100000201400002010B541282DD108215C
:102BC0000846FDF78FFD3D21112001F0A3FB862172
:102BD000172001F09FFB7F21262001F09BFB1E2187
:102BE0002D2001F097FB00212C2001F093FB8D217B
:102BF0002A2001F08FFB3E212B2001F08BFB0120CE
:102C0000FDF744FF142000F0C1FF800705D1032128
:102C1000BDE81040142001F0CDB910BD00B587B05B
:102C20001C216846FDF715FB17484FF02041102284
:102C300001601649416000218160C160C0E9041251
:102C40008161C16113020162C0E90913C1620163BC
:102C500041638163012000900F20019002AB0420AA
:102C600083E807001120CDE90501002269460648E6
:102C7000FFF74BF908B1FDF74BFD0548C16941F479
:102C80008061C16107B000BD04640020040100A0A0
:102C9000000001402DE9F04F85B00025594800950E
:102CA000019502950395816941F040018161816937
:102CB00001F040010491816941F010018161816955
:102CC00001F010010491816941F004018161816981
:102CD00001F004010491816941F008018161816979
:102CE00001F008010491816941F02001816180694E
:102CF000DFF8148100F02000049001220A214046F0
:102D0000FEF725F8DFF8049100224FF4DE71484603
:102D1000FEF71DF8DFF8F8A0012263215046FEF708
:102D200016F8DFF8F0B04FF48057002239465846C5
:102D3000FEF70DF8012240214846FEF708F8002270
:102D400039463548FEF703F8042000903348012443
:102D5000CDE9010469464046FDF7F8FE0A20022647
:102D60008DE8710069464046FDF7F0FE4FF4FE70B5
:102D70008DE8710069464846FDF7E8FEDFF8A0805F
:102D80006946CDE9004824480295FDF7DFFE102092
:102D9000CDE90008694602941F48FDF7D7FE63207D
:102DA0008DE8710069465046FDF7D0FE01AA0097F4
:102DB00082E8700069465846FDF7C8FE01AA0097F0
:102DC00082E8700069461448FDF7C0FE00221146F3
:102DD0000620FEF73DF80620FEF72DF8002206211A
:102DE0000820FEF735F80820FEF725F80022062116
:102DF0000A20FEF72DF80A20FEF71DF805B0BDE801
:102E0000F08F000000100240001801400010014047
:102E1000000C014000140140000801400000311086
:102E200000001110FEB52C48C16941F00061C1617C
:102E3000C16901F000610291C16941F08051C16135
:102E4000C069012100F0805002902448FEF776FB13
:102E5000234F40F26542214CBE154FF0FF359042A2
:102E600003D12760C4E90156FEBD01211B48FEF7CE
:102E70006DFB0020019000902760C4E901561748BF
:102E8000FEF700FC08B1FDF743FC07208DF80400B5
:102E900051208DF8050030208DF80600012201A98F
:102EA0000E48FEF7B5FC08B1FDF732FC03208DF8A3
:102EB000000006208DF8010004208DF80200252076
:102EC0008DF80300012269460448FEF73FFC002804
:102ED000CAD0FDF71DFCFEBD001002404C6400206E
:102EE00000280040104810B50E4901604FF482716F
:102EF000416000218160C1604FF400720161C0E94E
:102F000005123022C0E90721416281620A21C162B3
:102F1000FEF7F1FC002803D0BDE81040FDF7F8BB38
:102F200010BD00000030014060640020104810B562
:102F30000E4901604FF48271416000218160C160DF
:102F40004FF400720161C0E905122822C0E907218F
:102F5000416281620A21C162FEF7CDFC002803D0E4
:102F6000BDE81040FDF7D4BB10BD000000380040A4
:102F7000B86400200E4810B50C4901604FF4E131EF
:102F80004160002181600C22C160C0E904128161AE
:102F9000C161FFF769F908B1FDF7BAFB04490A22DC
:102FA000BDE810400C390248FFF77CBA00380140F8
:102FB0001C6500200C4810B50A4901604FF46141BE
:102FC0004160002181600C22C160C0E9041281616E
:102FD000C161FFF749F9002803D0BDE81040FDF7B3
:102FE00097BB10BD00440040646500200E4810B53A
:102FF0000C4901604FF416514160002181600C22A0
:10300000C160C0E904128161C161FFF72DF908B107
:10301000FDF77EFBBDE810401E2204490248FEF782
:10302000BCBF000000480040AC6500209C010020AF
:10303000FEE730B44FF4B4747BB1012B12D0631EA1
:1030400003EBC121B1FBF4F189B202F2FF72C2F3CA
:10305000CF2330BC042200F00FB8C902B1FBF4F159
:1030600089B2F4E7B42303EBC121B1FBF4F189B2D7
:1030700002F58062EBE700002DE9F0479A46042A4A
:1030800008D00827484C01F00708CE08BAF1000F15
:1030900007D008E0444C0427241F01F003088E08E1
:1030A000F4E74FF0010ADFF80491D8B15AE0605D0F
:1030B00000F00101C9F88811615DC1F34001C9F850
:1030C0008C11615DC1F38001C9F89011615DC1F39C
:1030D000C001C9F894115046FDF7D8FC6D1CEDB243
:1030E000BD42E4D3761EB6B24FF00005F8D24E468C
:1030F00018E0605D00F00100C6F88801605DC0F373
:103100004000C6F88C01605DC0F38000C6F89001F5
:10311000605DC0F3C000C6F894015046FDF7B6FCF0
:103120006D1CEDB24545E4D3BDE8F0873D4616E0A1
:10313000605D00F00101C9F88811615DC1F34001D3
:10314000C9F88C11615DC1F38001C9F89011615D0E
:10315000C1F3C001C9F894115046FDF797FC6D1EEC
:10316000EDB2E5D2761EB6B2E0D245464E4616E046
:10317000605D00F00100C6F88801605DC0F34000AA
:10318000C6F88C01605DC0F38000C6F89001605DF8
:10319000C0F3C000C6F894015046FDF777FC6D1EE1
:1031A000EDB2E5D2C0E7000050000020000022424E
:1031B00005480021C0F88811C0F88C11C0F89011A2
:1031C000C0F894117047000000002242FEE70000A2
:1031D00008B5294F294E4FF0FF384FF6FF744FF4D2
:1031E00078454FF47A79002342461946386805F04D
:1031F000EBFF2B4622A2172107200094FFF76EFC5D
:103200000A20FDF743FC012300225A211846FFF74C
:1032100010FF002201213046FDF799FD2B461BA22D
:10322000172107200094FFF759FC0A20FDF72EFC18
:103230004846FDF72BFC2B4617A2172107200094C8
:10324000FFF74CFC0A20FDF721FC002201235A2144
:103250001046FFF7EEFE012211463046FDF777FDDE
:103260002B4610A2172107200094FFF737FC0A20F5
:10327000FDF70CFCB7E70000D4000020000C014073
:103280004F70656E696E672E2E2E00004F70656E52
:103290006564212121000000436C6F73696E672E05
:1032A0002E2E0000436C6F73656421212100000005
:1032B00070B50646082188B000240846FDF712FACA
:1032C00000210D2001F026F880210E20FDF70AFADA
:1032D00093208DF8040020208DF8050006A801AB8E
:1032E0000090022219460C2000F042F805462628DC
:1032F0000DD1002101A8425C7254425C491C54402B
:10330000C9B20429F7D3405CA04200D0BB2580217C
:103310000E2000F04FFE08B0284670BD30B587B0D3
:103320008DF804008DF80510002001A9145C0D181B
:10333000401CC0B2AC700628F8D300200C181A5CF0
:10334000401CC0B222720628F8D306A800900B4693
:103350000C220E2000F00CF80446262804D1082088
:1033600000F014FC000700D4BB2407B0204630BD99
:103370002DE9FF5F0027BB25DDF838A016468B46F8
:103380008146B8460C2805D0B9F10E0F05D1122799
:10339000102001E077273020804647F0800102208E
:1033A00000F0B8FF80210420FDF79CF900210120E6
:1033B00000F0B0FF80210A2000F0FCFD002405E0B1
:1033C0001BF80410092000F0A5FF641CB442F7D3D9
:1033D0004946012000F09EFFB9F10C0F03D1802176
:1033E0000D2000F0E7FD4FF47A76042000F0CEFBCC
:1033F0000446761E04D0E00702D114EA080FF4D088
:1034000080210D20FDF76EF936B1062000F0BEFBDD
:1034100010F01B0F0CD0BB2580210C2000F0CAFD42
:103420000021012000F076FF04B02846BDE8F09F9F
:1034300026253C40E00700D0CC25B9F10C0FEBD19C
:103440000A2000F0A3FB04460C2000F09FFB10F0C4
:1034500007004FEAC40101D008390144CAF800103E
:1034600024B1122C04D91224002603E00124FBE726
:10347000002605E0092000F089FB03998855761C99
:10348000A642F7D3C8E700B587B050208DF80400F6
:1034900000208DF805000DF10602022101A8FDF7BC
:1034A00029F806A801AB0090042219460C20FFF76A
:1034B0005FFF07B0262000BD30B587B00D46302134
:1034C0008DF8041001AC8DF8050002212046A21CE5
:1034D000FDF710F806A801AB0090042219460C2055
:1034E000FFF746FF262802D10699902902D0BB207B
:1034F00007B030BD0023E15CE9545B1CDBB2102B4C
:10350000F9D3F5E730B50C460546082187B00846E3
:10351000FDF7E8F807210D2000F0FCFE0321142040
:1035200000F048FD06A801AB00908DF80450012280
:1035300019460C20FFF71CFF262802D106991029F6
:1035400002D0BB2007B030BD9DF8041021709DF85B
:1035500005106170F6E7000070B501221F4D1402DE
:1035600021462846FDF7F3FB0120FDF78FFA0022E4
:1035700021462846FDF7EBFB0120FDF787FA0122E3
:1035800021462846FDF7E3FB0120FDF77FFA0F21D6
:10359000012000F0BFFE012000F0F8FAC006FAD4C6
:1035A0000120FDF773FA3D21112000F0B3FE1E212A
:1035B0002D2000F0AFFE00212C2000F0ABFE8D216D
:1035C0002A2000F0A7FE3E212B2000F0A3FEBDE83C
:1035D00070404021152000F09DBE00000010014009
:1035E00010B588B093218DF8041070218DF8051066
:1035F00000218DF80A1001AA5418435CA370445CA2
:103600009DF80A30491C6340C9B28DF80A3004297C
:10361000F2D3072101A8D21DFCF76CFF0821084650
:10362000FDF760F806A801AB0090092219460C20AE
:10363000FFF79EFE262802D10699182900D0BB204C
:1036400008B010BD70B588B00D46A0218DF80410EB
:1036500001AC8DF8050002212046A21CFCF74AFFB0
:1036600006AE01AB042219460C200096FFF780FE3F
:10367000262826D10698042823D19DF8040000F0BE
:103680000F000A281DD10020295C2154401CC0B223
:103690001028F9D305AA102101A8FCF72BFF01ABD4
:1036A000122219460C200096FFF762FE262808D148
:1036B0000699042905D19DF8041001F00F010A298B
:1036C00000D0BB2008B070BD08B5002000900848AD
:1036D0006946006805F0CAFF0098002807D0054930
:1036E0004FF080500860BFF34F8FBFF36F8F08BD5E
:1036F000E000002004ED00E010B5064C01221102AC
:103700002046FDF724FB20460122BDE81040802121
:10371000FDF71DBB0010014086B0DFF86C81DFF8BB
:103720006CA15B4E06274FF6FF7B00BFC8F8007008
:103730000620FDF780FB00235A1E1946F06805F0AD
:1037400043FD00230A221946F06805F03DFD0620DE
:10375000FDF760FB01214F48FDF7F4FA0128E5D1A0
:1037600004F006F8002405A95220FFF7CBFE262816
:1037700007D005A95220FFF7C5FE262801D046A094
:1037800020E005A8FFF794FD262801D046A019E007
:1037900005A8FFF725FF262801D048A012E005ABB9
:1037A0004A4A55469AF800106020FFF7B7FD2628D0
:1037B00001D047A006E001A92878FFF77DFE262862
:1037C0000BD047A001F0C8F84FF47A7005F0AAFAC0
:1037D000641CE4B2032CC6D345E0FFF754FE9DF809
:1037E00004000121421E9140444A1268114218D03F
:1037F0002749303014310A46C8724FF47843052106
:103800000720CDF800B0FFF769F99DF804103CA03F
:1038100001F0A2F800231A461946306805F0F6FDBB
:103820000FE04FF478433AA205210720CDF800B00D
:10383000FFF754F93AA001F08FF84FF47A7005F0D1
:1038400071FA3BA001F088F800250DF1040900BFD2
:1038500019F805103CA001F07FF86D1C102DF7DB66
:1038600010A001F079F8032C7FF460AF4FF4784397
:1038700036A205210720CDF800B0FFF72FF938A0B8
:1038800001F06AF852E700001404014070000020C3
:10389000D400002000080140E5AFBBE58DA1E5A400
:1038A000B1E8B4A50A000000E998B2E586B2E69254
:1038B0009EE5A4B1E8B4A55C6E000000E98089E54E
:1038C0008DA1E5A4B1E8B4A50A000000A000002085
:1038D000E5AF86E7A081E99499E8AFAF0A00000060
:1038E000E8AFBBE58F96E58DA1E58685E695B0E668
:1038F0008DAEE5A4B1E8B4A50A0000008C0000205C
:1039000048656C6C6F2C20557365722025640A0025
:103910004E6F742076616C69642075736572000067
:103920004E6F742076616C696420757365720A004D
:10393000E8AFBBE58F96E588B0E79A84E695B0E6F8
:103940008DAEE4B8BA3A0A00256420004368656386
:103950006B2063617264206661696C6564000000BD
:10396000636865636B2063617264206661696C657E
:10397000640A0000010901EB810100F00F0000EB77
:103980004100C0B27047002102E00A38C0B2491CB1
:103990000A28FAD2090740EA116070472DE9F04180
:1039A00004460025C07B627BA37B42E0012A16D03F
:1039B000032A14D0052A12D0072A10D0082A0ED0C4
:1039C0000A2A0CD00C2A0AD0042A10D0062A0ED0BB
:1039D000092A0CD00B2A0AD0022A0DD028E01F2B6E
:1039E0000CD30C2A05D101221346401C20E01E2BCB
:1039F00004D30123521C1BE01C2B02D203F1010350
:103A000016E011D183B29E0710D16426B3FBF6F7FE
:103A100006FB173636B94FF4C876B3FBF6F706FB4C
:103A200017331BB91D2303E01D2B01D103220123F2
:103A30006D1C8D42BAD3D1B2E0736173DAB2A27356
:103A400000F050F82073BDE8F08170B50446FDF732
:103A500083F905464FF47A7606E0FDF77DF9401BC1
:103A6000B04201D9032070BD206840688006F4D5BB
:103A70002068416841F010014160002070BD0000E5
:103A800070B504460068416821F010014160FDF7FF
:103A900063F905464FF47A7607E000BFFDF75CF95D
:103AA000401BB04201D9032070BD206840688006E9
:103AB000F4D5002070BD0168086A496A89B241EAFC
:103AC00000407047006881698AB2C1698BB2816920
:103AD00089B28A4203D0C06961F31F40704743EA4C
:103AE00002407047F0B56424C1EBC1030927A5006B
:103AF000072603EB01130329B3FBF7F100F5FA6086
:103B0000114401440AD2401EB0FBF4F201EB9001D3
:103B1000B0FBF5F0891A0844001D08E0B0FBF4F290
:103B200001EB9001B0FBF5F0891A0844801CB0FB52
:103B3000F6F106FB1100C0B2F0BD70B50D460646A9
:103B40000024FFF782FF48B93168280C0862316809
:103B5000A8B248623046FFF793FF00B10124204627
:103B600070BD70B50D4606460024FFF76EFF48B9DC
:103B70003168280C88613168A8B2C8613046FFF707
:103B80007FFF00B10124204670BD00007CB57E217E
:103B900001EA400040F080000E4C8DF80000002249
:103BA00080212046FDF7D3F84FF47A752B46012289
:103BB00069460948FDF7FEFF2B46012201A9064888
:103BC000FDF74EFF012280212046FDF7C0F89DF849
:103BD00004007CBD0010014060640020F8B504467C
:103BE00040684FF48273984217D1A0684FF4806503
:103BF000B0F5004F01D0A8420FD12068066826F02A
:103C0000400606606068984207D1A068A84204D1C7
:103C100000920B460022012103E000920B46002295
:103C20008021204600F06AF9002804D0606D40F041
:103C3000200060650320F8BDF8B515460E460B461A
:103C4000009204460122022100F058F940B933469F
:103C5000002280212046009500F050F9002804D071
:103C6000606D40F0200060650320F8BD2DE9F04153
:103C7000104F06464FF4800014460D46386103206D
:103C800000F0F0F8C5F3074000F0ECF8C5F30720AA
:103C900000F0E8F8E8B200F0E5F804E0FF2000F0FA
:103CA000E1F806F8010B641EA4B2F7D24020386197
:103CB000BDE8F081001001402DE9F04707460E46AF
:103CC00011F0FF00C0F10001CDB24FEA122402F062
:103CD000FF094FF4807A13D0F0B24042C0B206EB35
:103CE00000080CB3501B80B2040A00F0FF092A46FA
:103CF0003146384600F04CF83D44464657462AE0E7
:103D00006CB15546641EE4B20CD32A46314638469F
:103D100000F03EF806F5807607F58077F2E7314649
:103D2000384621E04A46FAE7A945F8D9A9EB05004B
:103D3000C4B22A463146384600F02AF8414678197E
:103D4000224611E03A463146284600F021F805F5B2
:103D5000807506F58076641EE4B2F3D2B9F10000F6
:103D600006D0024631462846BDE8F04700F010B8BC
:103D7000BDE8F087044940200861044800680168F4
:103D800041F040010160704700100140B86400201C
:103D90002DE9F04114460D46064600F093F8114F08
:103DA0004FF480003861022000F05CF8C5F3074052
:103DB00000F058F8C5F3072000F054F8E8B200F01E
:103DC00051F8B4F5807F04D9FF24307800F04AF828
:103DD000761C641EA4B2F8D240203861BDE8F041E0
:103DE00000F052B80010014070B50D4D4FF4800046
:103DF00028619F2000F036F8FF2000F033F80446D9
:103E0000FF2000F02FF80646FF2000F02BF80146B7
:103E100040202861200440EA0620084370BD0000CD
:103E20000010014070B5044600F04CF800F02CF88A
:103E30000B4D4FF480002861202000F013F8C4F3EC
:103E4000074000F00FF8C4F3072000F00BF8E0B2D1
:103E500000F008F840202861BDE8704000F014B878
:103E60000010014001B582B00A2002AA009001238F
:103E700011460448FDF751FF08B100200EBD9DF822
:103E800008000EBDB86400202DE9F041FCF764FF86
:103E90000B4D00F57A744FF4800028610520FFF780
:103EA000E1FF4027FF20FFF7DDFF0646FCF754FF48
:103EB000A04201D2F007F5D12F61BDE8F0810000EA
:103EC0000010014010B5054C4FF480002061062021
:103ED000FFF7C8FF4020206110BD00000010014026
:103EE00010B5054C4FF480002061AB20FFF7BAFFFE
:103EF0004020206110BD0000001001402DE9F84372
:103F00001E46914688460446089DFCF725FF401B47
:103F1000351AFCF721FF074625480068C0F3CB306F
:103F2000684338E0701C37D0FCF716FFC01BA8426E
:103F300003D215B1009860B32CE02068416821F0ED
:103F4000E00141606068B0F5827F0BD1A068B0F5F8
:103F5000004F02D0B0F5806F04D12068016821F0D5
:103F600040010160A06AB0F5005F09D120680168D6
:103F700021F4005101602068016841F400510160A2
:103F8000012084F85100002084F850000320BDE88F
:103F9000F8830025401E00902068816838EA0100FF
:103FA00004D000214945BDD10020F0E70121F9E707
:103FB0002001002070B50C460546FFF7E7FD40EAFA
:103FC00004012846BDE8704000F0A4B9014908602A
:103FD000704700001000002010B5FCF7C3FE05F08C
:103FE0001BFC012803D0BDE8104005F09DB810BDB2
:103FF00070B596B028216846FCF72BF914210AA861
:10400000FCF727F918210FA8FCF723F90124052054
:1040100000250090CDE902544FF480300190022633
:104020000494CDE907604FF4E01009906846FDF76D
:10403000F5F808B172B6FEE70F20CDE90A064FF495
:104040008060CDE90C5002210AA80E95FDF70AF810
:1040500008B172B6FEE74FF48070CDE90F400FA8AB
:10406000FCF78AFF002801D072B6FEE716B070BDDB
:10407000704710B5406A0021C185C184FDF7BCFFBF
:1040800010BD01680C3151E8002F22F4907241E814
:104090000023002BF5D10168143151E8002F22F0E4
:1040A000010241E80023002BF5D1016B012909D160
:1040B00001680C3151E8002F22F0100241E8002382
:1040C000002BF5D1202180F84210002101637047B8
:1040D00008B590F84210222901D0022008BD82685C
:1040E0004FF480539A4201D1016921B1816A9A4209
:1040F0001BD04AB10AE00268816A5268C2F3080222
:104100000A80816A891C08E0026972B102685268FB
:1041100002F07F020A70816A491C8162C18D491ECA
:104120000904090CC18503D01BE002685268F1E75D
:104130000168CA6822F02002CA600168CA6822F4D5
:104140008072CA6001684A6922F001024A61202136
:1041500080F8421000214163026B012A03D0FEF770
:10416000AFF9002008BD016301680C3151E8002F50
:1041700022F0100241E80023002BF5D101680A6803
:10418000D20602D50A6849680091818DFDF72CFF9F
:10419000E7E7000070B5044600680169E26821F4B1
:1041A0004051114301612169A068084361690843D6
:1041B0002168CA6841F20C639A430243CA602068CE
:1041C0004169A26921F44071114341611E4920688F
:1041D000884202D1FCF7ECFF01E0FCF7D9FF00EBCD
:1041E000C00101EB0012606864218000B2FBF0F3B3
:1041F000B3FBF1F36FF018067343B2FBF0F5B2FBBB
:10420000F0F605EB8305322303EB0515B5FBF1F55D
:10421000B6FBF1F605F0F00505EB0615B2FBF0F67E
:10422000B2FBF0F0B0FBF1F06FF01802504306EB78
:10423000800003EB0010B0FBF1F0216800F00F00EC
:104240002844886070BD000000380140816282858A
:10425000C28500214164222180F84210016921B108
:104260000168CA6842F48072CA6001684A6942F013
:1042700001024A610068C16841F02001C16000206C
:1042800070472DE9F843984617460D460446089EA8
:1042900024E0701C22D0FCF75FFDA0EB0800B042C8
:1042A0001AD8CEB12068C168490717D5802D15D01E
:1042B000402D13D00168C94309070FD401680025B8
:1042C000406800902046FFF7DCFE0820606484F818
:1042D00040500120BDE8F8830320FBE72068006818
:1042E00035EA000004D00020B842D2D00020F1E727
:1042F0000120F9E7FEF75CBF0148FDF77FBE000033
:104300001C6500200148FDF779BE0000AC65002067
:10431000FEE700007CB5104C8DF804107E2101EA08
:1043200040008DF80000002280212046FCF70FFDA0
:104330004FF47A752B46012269460848FDF73AFC8E
:104340002B46012201A90548FDF734FC01228021FA
:104350002046FCF7FCFC7CBD00100140606400209E
:1043600000280ED0006800280BD0D0E900124A6067
:10437000D0E90012116003494A78521E4A7004F0D5
:10438000F7BB70471C00002038B50121002000F069
:1043900059F80446684600F08FF8684600F034F893
:1043A000002808D0032C07D0012C04D14169002932
:1043B00001D0C068884738BD0169F8E710B504002E
:1043C00001D0206808B1012010BD0C2004F07AF95A
:1043D00070B184600749206041600A6802600A6821
:1043E0005060086018394878401C4870002010BDA3
:1043F000032010BD3400002010B500F037FABDE8EE
:10440000104000F03BBA000070B50D4A03465168F9
:1044100011E088681C888588AC420BD30689354436
:10442000A54207D35C88C588AC4203D3468935448E
:10443000A54203D249689142EBD1002070BD000033
:104440003400002010B51B4C012800D1A17000F0F1
:1044500001FA0028A07819D0022805D003280CD032
:1044600004281BD0022015E0FCF776FCE168411A15
:104470000A2913D30321A1700FE0FCF76DFCE1685A
:10448000401AB0F57A7F09D3042010E040B101282A
:1044900004D00020A070FCF75FFCE060A07810BDA5
:1044A000FCF75AFCE168401A0A28F7D30120A070F3
:1044B000F4E700001C0000202DE9FC410446102216
:1044C00001A9684600F056F8002848D02548007831
:1044D000C00704D0BDF80410BDF8002003E0BDF80B
:1044E0000010BDF80420204B204F9E881889DD88DD
:1044F0005B8986420AD9814200D20146B14200D985
:1045000031463F88091A7943301A09E0814200D9BF
:104510000146B14200D231463F88411A7943801B9F
:1045200091FBF0F0208012489D420AD99A4200D2B5
:104530001A46AA4200D92A460088D11A4143E81AED
:1045400009E09A4200D91A46AA4200D22A460088B7
:10455000991A4143581B91FBF0F060800120BDE89F
:10456000FC810000180000201C0000201400002026
:10457000160000202DE9FE4F00271546884681468B
:104580003E463A4608212748FCF7E1FB002435E087
:1045900000F060F9A0B34FF0FF3A534601222249E0
:1045A0002248FDF707FB2049022302AA491C1F48A5
:1045B000CDF800A0FDF7B1FB1B4953460122491E6F
:1045C0001A48FDF7F7FA1849022301AA491C1748AF
:1045D000CDF800A0FDF7A1FB9DF804009DF80510A3
:1045E000000240EAD10007449DF808009DF8091038
:1045F000000240EAD100641C0644E4B2AC42C7D3D6
:1046000000F034F9AC4202D20020BDE8FE8FB7FBC7
:10461000F5F0A9F80000B6FBF5F0A8F800000120BD
:10462000F3E70000001801408FB800086064002024
:104630002DE9F04F99B010200090714871494FF06A
:10464000000B0078189081F800B00220FEF7BEF948
:10465000DFF8B491DFF8B4A1B9F80000810800EBED
:10466000400080080691089005910790BAF8000074
:1046700000EB400189088008CDE90B01CDE9091064
:104680006348FFF7A3FC0020FEF794F800240DF127
:10469000040814AF05AE09AD4FF6E07335F82400F9
:1046A000052281B236F8240080B2FDF78DFF01218A
:1046B0000020FFF7C7FE0328F9D107EB840108EBC0
:1046C0008400009AFFF756FF002851D057F82420A5
:1046D00058F824104FA000F03FF901210020FFF707
:1046E000B1FE0128F9D135F82400002381B236F853
:1046F0002400052280B2FDF767FF641CE4B2042C9D
:10470000CAD30498019900EB4000401A4FEA500CBC
:1047100001EB41000499039A401A47080398029953
:1047200000EB4000401A41080298159C00EB400045
:10473000801A4208149800EB40031B1B5E0804EB30
:104740004403181A45081798169B00EB4000C01A3E
:1047500043081698179C00EB4000001B44084CEAE5
:10476000070008431043304328431843204314D51F
:10477000CDF800B0BAF80000B9F8002041086FF099
:104780003E0000EB520080B24FF4784326A2FEF7C1
:10479000DFF9002019B0BDE8F08F0CEB0100C0F389
:1047A0004F0118483A441030C2F34F02018033449D
:1047B0008280C3F34F032C444380C4F34F04C4806E
:1047C0001E48009400F0C8F8CDF800B0BAF8000018
:1047D000B9F8002041086FF03E0000EB520080B2B3
:1047E0004FF4FC6316A2FEF7B3F91898FEF7EEF843
:1047F00000F044F80348012101700846CAE70000B0
:10480000180000201C0000201400002016000020CA
:10481000000000207477203D2025642C207468203F
:104820003D2025640D0A000043616C696272617469
:1048300065204661696C65642100000004B90008C8
:1048400043616C696272617465205375636365735B
:104850007364000010B504210348FCF773FA08B133
:10486000002010BD012010BD0018014001220821C8
:104870000148FCF76CBA00000018014070B51C48F4
:1048800000784007050E1B48017831B100F1100196
:104890000C888B884A88C98807E040F2DC5347F6C9
:1048A000181440F6CC4147F29E52AE064FEA056618
:1048B0000ED4002E02DA4281C18001E04181C28023
:1048C000690602D50381848070BD0481838070BD38
:1048D000002E02DA4481C38001E04381C4806B066C
:1048E00002D50181828070BD0281818070BD00008F
:1048F000180000201C00002008B500200090084887
:104900006946006804F0B2FE0098002807D0054907
:104910004FF080500860BFF34F8FBFF36F8F08BD1B
:10492000D800002004ED00E008B500200090084801
:104930006946006804F09AFE0098002807D00549EF
:104940004FF080500860BFF34F8FBFF36F8F08BDEB
:10495000DC00002004ED00E00FB4054B10B503A906
:10496000044A029800F028F810BC5DF814FB00001F
:104970006D6C0008980100200907090E002804DB6F
:1049800000F1E02080F80014704700F00F0000F103
:10499000E02080F8141D704702E008C8121F08C10B
:1049A000002AFAD170477047002001E001C1121FB0
:1049B000002AFBD1704700002DE9FF4F8BB09A46CB
:1049C0000F460546002606E025280BD052460D99D5
:1049D00090476D1C761C28780028F5D10FB0304622
:1049E000BDE8F08F0024A0460122604900E00443A6
:1049F00015F8013F203B02FA03F00842F7D128786E
:104A00002E2817D115F8010F44F004042A280ED0DF
:104A10006FF02F022878A0F1300109290AD808EB9D
:104A2000880102EB410100EB01086D1CF2E757F829
:104A3000048B6D1C287869283ED006DC0028CDD078
:104A400063280BD0642804D136E0732810D0752871
:104A50004BD052460D999047761C85E017F8040B11
:104A60008DF8000000208DF80100E946012003E0E8
:104A700057F8049B4FF0FF3061074FF0000401D45A
:104A80000AE0641C44450DDA8442FADB19F804108C
:104A90000029F6D106E0641C8442FCDB19F80410FE
:104AA0000029F8D1264404E019F8010B52460D996B
:104AB0009047641EF8D257E001CF4FF00A0B002850
:104AC00002DA40422D2102E0210504D52B218DF888
:104AD0002410012103E0E10705D02021F7E70DF1C3
:104AE000200908910CE00021F9E701CF4FF00A0BF3
:104AF000F9E75946FBF7CFFB01F1300209F8012D28
:104B00000028F6D1ADEB090000F1200B600701D4BD
:104B10004FF00108D84502DDA8EB0B0000E00020B3
:104B20008046002406E009A85246005D0D99904792
:104B3000641C761C08988442F5DB04E03020524661
:104B40000D999047761CB8F10001A8F10108F5DC39
:104B500005E019F8010B52460D999047761CBBF100
:104B60000001ABF1010BF4DC6D1C34E709280100F6
:104B70002DE9FF4FDFF8008404460F46D8F82800DF
:104B800083B01E46411C01D085B200E0254629466F
:104B9000FAA0FFF7E1FE0221A4F1010B4FF000099A
:104BA0004FF0080A4FF6FF74092D7DD2DFE805F0BB
:104BB0007C050D85D3FDFCFBFA00F34800231A4663
:104BC0001946006804F022FCBEE0D8F8280002284C
:104BD00015D0B8F80400B8F80210884201D3EBA051
:104BE0002DE1C8F82850A6F800A04FF47843F0A2B1
:104BF000052107200094FDF771FFF2A01FE14FF09F
:104C0000FF30C8F8280087F800900222F2A1F64889
:104C1000CDF8049001F01AFD05000AD04FF4784356
:104C2000F2A2052107200094FDF758FF2946F3A0C2
:104C300023E1B8F80400C100EB4801F05CF905007D
:104C40000AD04FF47843F7A2052107200094FDF71E
:104C500045FF2946F7A025E101AB0822E248059966
:104C600001F0D1FE05000AD04FF47843FBA20521E4
:104C700007200094FDF732FF2946FCA012E1B8F8A6
:104C8000040001218140D8F80C20401C1143C8F8D1
:104C90000C10B949A8F804004431303048720A4673
:104CA0004FF47843052100E00EE307200094FDF760
:104CB0004FFFB8F80410F6A0F4E00A20FCF7AAF8B9
:104CC00005F031FB02E0F9A0FFF746FE05F00EFB10
:104CD00001465528F7D1FDA0FFF73EFE4546B8F83E
:104CE0000410032005F0FCF94FF47A78B8B14FF4C2
:104CF0007843FDA2052107200094FDF7EFFEFEA0FA
:104D0000FFF72AFE5FF0040005F032F9404604F098
:104D100009F800BF05F0F7FA0028FBD1FCE0A888ED
:104D2000012181406A69401C11436961A8804FF4E8
:104D30007843F7A2052107200094FDF7CFFEF9A0E4
:104D4000FFF70AFE0220DFE787F80090A6F800A030
:104D500007B0BDE8F08F0620FCF75CF84FF4784B05
:104D60005B46F6A2052107200094FDF7B7FE4546F5
:104D7000814A2878303240F003000021FBF7EEFB37
:104D80002628F5D1A8880121EA6981401143401CF9
:104D9000E961A88078492878091DFEF753FC262888
:104DA000F8D103E0D0E08CE038E01DE0FEF76BFBCB
:104DB000714928794431303048720A465B460521F2
:104DC00007200094FDF78AFEDFA0FFF7C5FDE3484A
:104DD00087F80090A6F800A00621016007B00846F9
:104DE000BDE8F04FFCF727B8D8F8280005280CD00C
:104DF000C8F8285031804FF47843D9A20521072004
:104E00000094FDF76BFEDBA019E00121D8F810003B
:104E100001FA0BF10143C8F81010A6E0D8F82810E9
:104E2000062911D0C8F82850A6F800A04FF47843FE
:104E3000D6A2052107200094FDF750FED8A007B0A8
:104E4000BDE8F04FFFF788BD4FF0FF31C8F82810DC
:104E500087F800900222D8A16348CDF8049001F0B1
:104E6000F5FB05000CD04FF4784360A20521072024
:104E70000094FDF733FE2946D3A0FFF76DFD67E7E9
:104E800001AB08225848059901F0BDFD05004FF41B
:104E9000784300940CD071A205210720FDF71EFE77
:104EA0002946D3A0FFF758FD4F4801F015F84FE70A
:104EB000D8A205210720FDF711FEDAA0FFF74CFD6F
:104EC000F2E7D8F82820072A92D14FF0FF310A20C4
:104ED000C8F82810FBF79EFF05F025FA05F006FA42
:104EE0005528FBD1D7A0FFF737FD1FFA8BF00546F9
:104EF000012104F0EBFFB0B14FF47843D8A20521B3
:104F000007200094FDF7EAFDD9A000BFFFF724FDBC
:104F100005F0F9F90028FBD19049102008600A201B
:104F2000FBF789FF10E70120D8F81820A8401043AC
:104F3000C8F818004FF47843D2A205210720009446
:104F4000FDF7CCFDD3A0E1E7D8F828000828BBD1B5
:104F50000120D8F8201000FA0BF00143C8F8201007
:104F6000D8F81C108143C8F81C1005214FF4784371
:104F7000C4A20720009499E170000020636D643A98
:104F80002025640A00000000D4000020E794A8E671
:104F900088B7E695B0E9878FE5B7B2E8BEBEE58889
:104FA000B0E69C80E5A4A7E580BC5C6E0000000034
:104FB000496E70757420796F7572207061737377A4
:104FC0006F726400696E70757420796F75722070ED
:104FD00061737377640A0000313A757365725F70AC
:104FE00077642E7478740000B01200204F70656EE4
:104FF0002066696C65206661696C00004661696CB9
:10500000656420746F206F70656E20757365722003
:105010007061737377642066696C653A2025640A51
:10502000000000005365656B2066696C6520666151
:10503000696C00004661696C656420746F2073655B
:10504000656B207573657220706173737764206679
:10505000696C653A2025640A000000005772697483
:10506000652066696C65206661696C004661696CE3
:10507000656420746F20777269746520757365723A
:10508000207061737377643A2025640A0000000081
:105090007375636365666666756C6C7920616464BC
:1050A00020757365722025640A0000006661696CD2
:1050B00020746F207368616B652068616E642C20BA
:1050C000726574203D2025640A00000062656769EE
:1050D0006E2072656769737465722066696E6765B4
:1050E000727072696E740A007265676973746572B2
:1050F000206661696C6564006661696C20746F206C
:1051000072656769737465722066700A000000003A
:1051100072656769737465722066696E6973686524
:10512000640000007375636365737366756C6C79F6
:105130002072656769737465720A00005075742087
:105140004943206361726400E4BFAEE694B9E5AF01
:1051500086E7A081E68890E58A9F0A001404014052
:10516000496E70757420757365722773206F726451
:1051700065720000696E70757420746865207573BF
:105180006572206F726465720A000000496E707566
:1051900074206E65772070617373776F726400009E
:1051A000696E707574206E65772061646D696E201C
:1051B0007061737377640A00313A61646D5F707770
:1051C000642E7478740000004661696C6564207414
:1051D0006F206F70656E2061646D696E2070617301
:1051E0007377642066696C653A2025640A000000C4
:1051F0004661696C656420746F20777269746520FC
:1052000061646D696E207061737377643A20256400
:105210000A0000004368616E67652073756363650B
:10522000737300006368616E67652061646D696E09
:105230002070617373776420737563636573730A99
:1052400000000000626567696E2064656C657465C6
:105250002066696E6765727072696E740A0000007C
:1052600044656C657465206661696C656400000066
:105270006661696C20746F2064656C657465206676
:10528000700A000044656C6574652073756363651E
:10529000737300007375636365737366756C6C7903
:1052A0002064656C6574650A00000000FDF716FC5B
:1052B00008A0FFF751FB4FF0FF30C8F82800A6F810
:1052C00000A087F8009043E54FF0FF30C8F82800B1
:1052D0003AE5000064656C6574652075736572203D
:1052E00025640A0010B5054C02E000BF00F008F884
:1052F00094F898000028F9D110BD00009C0100200E
:10530000134910B591F89820002022B1521E81F85F
:10531000982000230BE0002010BD00BF91F89720DB
:10532000C2EB021201EB42021354401CC0B2C0EBAC
:10533000001211EB420201D01E28EFD311F8972F73
:105340000523521CB2FBF3F403FB14220A7010BDB8
:105350009C01002008B500B1012030308DF800001C
:105360000B460122694602A000F0C2F808BD000009
:105370005452414E53504F525400000000221146E7
:1053800001A000F0EDB800004449534300000000C4
:1053900070B50446FBF7E0FC0546FFF7A3FF0022CB
:1053A00011460EA000F0DCF8322C0ED232240CE0B4
:1053B000012000F083F8010007D00AA0FFF7CCFA23
:1053C000FBF7CAFC0546FFF79BFFFBF7C5FC401B3C
:1053D000A042EDD9BDE87040FFF784BF48454C506E
:1053E000000000002573000038B51A4C0020009022
:1053F00094F89800401CC0B284F89800052801D3A6
:10540000FFF77EFF94F896000521401CB0FBF1F2F7
:1054100001FB120084F89600C0EB001004EB400181
:105420001E220D48FCF7B9FD0C48007801280FD169
:105430000B486946006804F019F90098002807D065
:1054400008494FF080500860BFF34F8FBFF36F8F54
:1054500038BD00009C010020AC65002071000020D8
:10546000E400002004ED00E070B512480021124C69
:1054700080F8981080F8971080F896100A4640211E
:105480002046FBF764FC4FF496752846FBF7FEFABE
:10549000012240212046FBF75AFC2846FBF7F6FA8A
:1054A000BDE8704000224FF47A731146104600F0B8
:1054B0001FB800009C010020000C01400B4903466E
:1054C000002091F89820002A0ED0084690F8970006
:1054D00033B110440522401E90FBF2F302FB13008F
:1054E000C0EB001001EB4000704700009C01002061
:1054F0002DE9F0471D469046894682460024FBF779
:105500002BFC0746002642464946504600F028F844
:10551000322D17D2322515E00120FFF7CFFF88B1D9
:10552000641CA4B2015D0029FAD1042C08D32044E4
:1055300010F8041C4F2903D110F8030C4B2806D097
:10554000022604E0FBF708FCC01BA842E4D9FBF7E5
:1055500003FCC01BA84200D901263046BDE8F087F5
:1055600070B516460C46050016D02878A0B1032168
:105570000BA000F01DF80021284600F019F82CB10E
:10558000207818B13146204600F012F8022105A01B
:10559000BDE8704000F00CB8042103A0F8E700005B
:1055A00041542B000D0A000041540D0A0000000078
:1055B00070B50D0006464FF000040BD14FF6FF7595
:1055C0000AE03119641CA4B24FF47A730122054831
:1055D000FCF788FFAC4202D2305D0028F1D12046B2
:1055E00070BD0000AC65002070B50446002020713D
:1055F000401E2063204601F0C3FD08B1042070BDA9
:1056000004F2322001F017FC054694F834004AF603
:105610005526EB2803D0E92801D0E8283FD1B54230
:1056200007D1082221A104F18600FAF727FE0028FD
:10563000E5D004F13F0001F0FEFB94F84110421E5A
:1056400010422CD1B0F5007F29D3B0F5805F26D869
:1056500029B3481E014222D104F1420001F0EBFBC4
:10566000E8B194F84400401E012818D804F1450020
:1056700001F0E1FB98B104F1470001F0DCFB802868
:1056800006D204F1540001F0CBFBB0F5803F06D305
:1056900004F14A0001F0CFFB08B1002070BDB54213
:1056A00001D1022070BD032070BD0000464154337B
:1056B00032202020000000008269891E921E8A424A
:1056C00001D800207047C26A408900FB0120704762
:1056D0002DE9F04106680F00804606D001F0D2FAAD
:1056E000022809D20120BDE8F081346914B1B06903
:1056F000A04207D8012405E0411CF4D0B1698142E1
:10570000F1D83C4670690028EDD0BC4216D1B06992
:10571000651CA84200D802252946404601F0B2FA8D
:105720000128E0D0411CDED038B13069022805D311
:10573000B169814202D9044600E0A5B92546B069A5
:105740006D1CA84202D80225022C0AD329464046E5
:1057500001F098FA38B10128C5D0411CC3D0A54248
:10576000EDD10020BFE74FF0FF34224629463046F6
:1057700002F015FF30B95FB12A463946304602F0D3
:105780000EFF28B1012800D0012425462846AAE7AB
:10579000356170690028F9D0B169891E8842F5D851
:1057A000401E7061707940F001007071EEE70000FA
:1057B0002DE9F047894620300F68064620220B214C
:1057C000FAF740FD0025A846082024E07C5D6D1C0A
:1057D000202C13D92F2C0CD05C2C0AD02E2C01D0CD
:1057E000D0451AD3BAF10B0F36D02E2C34D10FE09E
:1057F0006D1C785D2F28FBD05C28F9D07919C9F889
:105800000010B8F1000F27D03078E52832D033E00F
:105810004FF008080B208246D8E7812C17D3FE2CC6
:1058200015D8785D6D1C402816D37E2803D9A0F1C9
:1058300080017E2910D8AAF1010188450CD206F812
:10584000084008F1010108F102087054BEE7214642
:105850000FA0FAF709FD10B10620BDE8F087A4F10A
:105860006100192801D8203CE4B206F8084008F18C
:105870000108ABE705203070202C02D9785D202884
:1058800001D8042000E00020F0720020E5E70000CD
:105890002A2B2C3A3B3C3D3E5B5D7C223F7F000047
:1058A0002DE9FF4F81B09B466A460121019800F027
:1058B000B8FA00287DD108264FF03F09F101009F7A
:1058C00003E0700010F0FF0606D006FB09F0B7FBFE
:1058D000F0F08842F5D806B9FF264FF480515846BB
:1058E000FAF7B7FC0BF5DF754FF0000A4C465DE0A8
:1058F000029951F82A80B8F1640F09D801D13846CD
:1059000005E04FF06400B7FBF0F000FB08F08046C4
:1059100004EB0800B84201D8A04201D2A7EB04086A
:10592000B8F1000F44D0214605F1080002F0E6FF6F
:10593000414605F10C0002F0E1FFB4FBF9F2B2FBC5
:10594000F6F303982871B4FBF9FC09FB06F1B4FBEC
:10595000F1F006FB132209FB1C4C6A70C02303EA1A
:1059600090020CF1010C42EA0C02AA70E87004EB00
:105970000800441EB4FBF9FCBCFBF6F2B4FBF9F8DA
:10598000B4FBF1F106FB12CC09FB184203EA9103C8
:10599000521C85F805C01343AB71E9710AF1010A85
:1059A00010350446BAF1040F02D20CB1BC429FD3A9
:1059B00000E00DE04AF655210BF5FF7002F0A6FF5E
:1059C000012300225946019800F068FA002800D00F
:1059D000012005B0BDE8F08F3EB5012231A132486B
:1059E00000F00EFE04460D2801D0B4B91DE04FF4BE
:1059F00080532E4A00212BA000F026FB04462CA049
:105A0000FEF7AAFF14B1214634A008E0012225A127
:105A1000254800F0F5FD040004D0014638A0FEF74B
:105A20009BFF3DE03EA0FEF797FF0B2247A14B48AE
:105A300000F00CFE040002D0014649A025E0002140
:105A40000091019108466A4602911154401C0828B1
:105A5000FBDB02AB08226946404800F0D4FF04009B
:105A600007D0014648A0FEF777FF3C4800F034FA23
:105A70000DE03A4800F030FA0B224CA1374800F014
:105A8000E5FD040009D001464CA0FEF765FF0022A9
:105A900004A1104600F0B4FD02E0304800F01CFA0A
:105AA00020463EBD313A00007C020020D822002072
:105AB0004E6F2066696C6573797374656D20666FCF
:105AC000756E642C206372656174696E6720612055
:105AD0006E6577206F6E652E2E2E0A004661696C0A
